{
  "_format": "hh-sol-artifact-1",
  "contractName": "Upload",
  "sourceName": "contracts/Upload.sol",
  "abi": [
    {
      "inputs": [
        {
          "internalType": "address",
          "name": "_user",
          "type": "address"
        },
        {
          "internalType": "string",
          "name": "url",
          "type": "string"
        }
      ],
      "name": "add",
      "outputs": [],
      "stateMutability": "nonpayable",
      "type": "function"
    },
    {
      "inputs": [
        {
          "internalType": "address",
          "name": "user",
          "type": "address"
        }
      ],
      "name": "allow",
      "outputs": [],
      "stateMutability": "nonpayable",
      "type": "function"
    },
    {
      "inputs": [
        {
          "internalType": "address",
          "name": "user",
          "type": "address"
        }
      ],
      "name": "disallow",
      "outputs": [],
      "stateMutability": "nonpayable",
      "type": "function"
    },
    {
      "inputs": [
        {
          "internalType": "address",
          "name": "_user",
          "type": "address"
        }
      ],
      "name": "display",
      "outputs": [
        {
          "internalType": "string[]",
          "name": "",
          "type": "string[]"
        }
      ],
      "stateMutability": "view",
      "type": "function"
    },
    {
      "inputs": [],
      "name": "shareAccess",
      "outputs": [
        {
          "components": [
            {
              "internalType": "address",
              "name": "user",
              "type": "address"
            },
            {
              "internalType": "bool",
              "name": "access",
              "type": "bool"
            }
          ],
          "internalType": "struct Upload.Access[]",
          "name": "",
          "type": "tuple[]"
        }
      ],
      "stateMutability": "view",
      "type": "function"
    }
  ],
  "bytecode": "0x608060405234801561001057600080fd5b50611504806100206000396000f3fe608060405234801561001057600080fd5b50600436106100575760003560e01c806336d6da551461005c578063a9ed9cb814610078578063bc8bef8114610094578063eb39113f146100b2578063ff9913e8146100e2575b600080fd5b61007660048036038101906100719190610dad565b6100fe565b005b610092600480360381019061008d9190610e09565b610173565b005b61009c610395565b6040516100a99190610f3e565b60405180910390f35b6100cc60048036038101906100c79190610e09565b61049e565b6040516100d991906110a1565b60405180910390f35b6100fc60048036038101906100f79190610e09565b6106b4565b005b6000808373ffffffffffffffffffffffffffffffffffffffff1673ffffffffffffffffffffffffffffffffffffffff1681526020019081526020016000208190806001815401808255809150506001900390600052602060002001600090919091909150908161016e91906112d9565b505050565b6000600160003373ffffffffffffffffffffffffffffffffffffffff1673ffffffffffffffffffffffffffffffffffffffff16815260200190815260200160002060008373ffffffffffffffffffffffffffffffffffffffff1673ffffffffffffffffffffffffffffffffffffffff16815260200190815260200160002060006101000a81548160ff02191690831515021790555060005b600260003373ffffffffffffffffffffffffffffffffffffffff1673ffffffffffffffffffffffffffffffffffffffff16815260200190815260200160002080549050811015610391578173ffffffffffffffffffffffffffffffffffffffff16600260003373ffffffffffffffffffffffffffffffffffffffff1673ffffffffffffffffffffffffffffffffffffffff16815260200190815260200160002082815481106102bd576102bc6113ab565b5b9060005260206000200160000160009054906101000a900473ffffffffffffffffffffffffffffffffffffffff1673ffffffffffffffffffffffffffffffffffffffff160361037e576000600260003373ffffffffffffffffffffffffffffffffffffffff1673ffffffffffffffffffffffffffffffffffffffff1681526020019081526020016000208281548110610359576103586113ab565b5b9060005260206000200160000160146101000a81548160ff0219169083151502179055505b808061038990611409565b91505061020b565b5050565b6060600260003373ffffffffffffffffffffffffffffffffffffffff1673ffffffffffffffffffffffffffffffffffffffff168152602001908152602001600020805480602002602001604051908101604052809291908181526020016000905b82821015610495578382906000526020600020016040518060400160405290816000820160009054906101000a900473ffffffffffffffffffffffffffffffffffffffff1673ffffffffffffffffffffffffffffffffffffffff1673ffffffffffffffffffffffffffffffffffffffff1681526020016000820160149054906101000a900460ff161515151581525050815260200190600101906103f6565b50505050905090565b60603373ffffffffffffffffffffffffffffffffffffffff168273ffffffffffffffffffffffffffffffffffffffff1614806105605750600160008373ffffffffffffffffffffffffffffffffffffffff1673ffffffffffffffffffffffffffffffffffffffff16815260200190815260200160002060003373ffffffffffffffffffffffffffffffffffffffff1673ffffffffffffffffffffffffffffffffffffffff16815260200190815260200160002060009054906101000a900460ff165b61059f576040517f08c379a0000000000000000000000000000000000000000000000000000000008152600401610596906114ae565b60405180910390fd5b6000808373ffffffffffffffffffffffffffffffffffffffff1673ffffffffffffffffffffffffffffffffffffffff168152602001908152602001600020805480602002602001604051908101604052809291908181526020016000905b828210156106a957838290600052602060002001805461061c906110f2565b80601f0160208091040260200160405190810160405280929190818152602001828054610648906110f2565b80156106955780601f1061066a57610100808354040283529160200191610695565b820191906000526020600020905b81548152906001019060200180831161067857829003601f168201915b5050505050815260200190600101906105fd565b505050509050919050565b60018060003373ffffffffffffffffffffffffffffffffffffffff1673ffffffffffffffffffffffffffffffffffffffff16815260200190815260200160002060008373ffffffffffffffffffffffffffffffffffffffff1673ffffffffffffffffffffffffffffffffffffffff16815260200190815260200160002060006101000a81548160ff021916908315150217905550600360003373ffffffffffffffffffffffffffffffffffffffff1673ffffffffffffffffffffffffffffffffffffffff16815260200190815260200160002060008273ffffffffffffffffffffffffffffffffffffffff1673ffffffffffffffffffffffffffffffffffffffff16815260200190815260200160002060009054906101000a900460ff16156109665760005b600260003373ffffffffffffffffffffffffffffffffffffffff1673ffffffffffffffffffffffffffffffffffffffff16815260200190815260200160002080549050811015610960578173ffffffffffffffffffffffffffffffffffffffff16600260003373ffffffffffffffffffffffffffffffffffffffff1673ffffffffffffffffffffffffffffffffffffffff168152602001908152602001600020828154811061088c5761088b6113ab565b5b9060005260206000200160000160009054906101000a900473ffffffffffffffffffffffffffffffffffffffff1673ffffffffffffffffffffffffffffffffffffffff160361094d576001600260003373ffffffffffffffffffffffffffffffffffffffff1673ffffffffffffffffffffffffffffffffffffffff1681526020019081526020016000208281548110610928576109276113ab565b5b9060005260206000200160000160146101000a81548160ff0219169083151502179055505b808061095890611409565b9150506107da565b50610af7565b600260003373ffffffffffffffffffffffffffffffffffffffff1673ffffffffffffffffffffffffffffffffffffffff16815260200190815260200160002060405180604001604052808373ffffffffffffffffffffffffffffffffffffffff168152602001600115158152509080600181540180825580915050600190039060005260206000200160009091909190915060008201518160000160006101000a81548173ffffffffffffffffffffffffffffffffffffffff021916908373ffffffffffffffffffffffffffffffffffffffff16021790555060208201518160000160146101000a81548160ff02191690831515021790555050506001600360003373ffffffffffffffffffffffffffffffffffffffff1673ffffffffffffffffffffffffffffffffffffffff16815260200190815260200160002060008373ffffffffffffffffffffffffffffffffffffffff1673ffffffffffffffffffffffffffffffffffffffff16815260200190815260200160002060006101000a81548160ff0219169083151502179055505b600260003373ffffffffffffffffffffffffffffffffffffffff1673ffffffffffffffffffffffffffffffffffffffff16815260200190815260200160002060405180604001604052808373ffffffffffffffffffffffffffffffffffffffff168152602001600115158152509080600181540180825580915050600190039060005260206000200160009091909190915060008201518160000160006101000a81548173ffffffffffffffffffffffffffffffffffffffff021916908373ffffffffffffffffffffffffffffffffffffffff16021790555060208201518160000160146101000a81548160ff021916908315150217905550505050565b6000604051905090565b600080fd5b600080fd5b600073ffffffffffffffffffffffffffffffffffffffff82169050919050565b6000610c3482610c09565b9050919050565b610c4481610c29565b8114610c4f57600080fd5b50565b600081359050610c6181610c3b565b92915050565b600080fd5b600080fd5b6000601f19601f8301169050919050565b7f4e487b7100000000000000000000000000000000000000000000000000000000600052604160045260246000fd5b610cba82610c71565b810181811067ffffffffffffffff82111715610cd957610cd8610c82565b5b80604052505050565b6000610cec610bf5565b9050610cf88282610cb1565b919050565b600067ffffffffffffffff821115610d1857610d17610c82565b5b610d2182610c71565b9050602081019050919050565b82818337600083830152505050565b6000610d50610d4b84610cfd565b610ce2565b905082815260208101848484011115610d6c57610d6b610c6c565b5b610d77848285610d2e565b509392505050565b600082601f830112610d9457610d93610c67565b5b8135610da4848260208601610d3d565b91505092915050565b60008060408385031215610dc457610dc3610bff565b5b6000610dd285828601610c52565b925050602083013567ffffffffffffffff811115610df357610df2610c04565b5b610dff85828601610d7f565b9150509250929050565b600060208284031215610e1f57610e1e610bff565b5b6000610e2d84828501610c52565b91505092915050565b600081519050919050565b600082825260208201905092915050565b6000819050602082019050919050565b610e6b81610c29565b82525050565b60008115159050919050565b610e8681610e71565b82525050565b604082016000820151610ea26000850182610e62565b506020820151610eb56020850182610e7d565b50505050565b6000610ec78383610e8c565b60408301905092915050565b6000602082019050919050565b6000610eeb82610e36565b610ef58185610e41565b9350610f0083610e52565b8060005b83811015610f31578151610f188882610ebb565b9750610f2383610ed3565b925050600181019050610f04565b5085935050505092915050565b60006020820190508181036000830152610f588184610ee0565b905092915050565b600081519050919050565b600082825260208201905092915050565b6000819050602082019050919050565b600081519050919050565b600082825260208201905092915050565b60005b83811015610fc6578082015181840152602081019050610fab565b60008484015250505050565b6000610fdd82610f8c565b610fe78185610f97565b9350610ff7818560208601610fa8565b61100081610c71565b840191505092915050565b60006110178383610fd2565b905092915050565b6000602082019050919050565b600061103782610f60565b6110418185610f6b565b93508360208202850161105385610f7c565b8060005b8581101561108f5784840389528151611070858261100b565b945061107b8361101f565b925060208a01995050600181019050611057565b50829750879550505050505092915050565b600060208201905081810360008301526110bb818461102c565b905092915050565b7f4e487b7100000000000000000000000000000000000000000000000000000000600052602260045260246000fd5b6000600282049050600182168061110a57607f821691505b60208210810361111d5761111c6110c3565b5b50919050565b60008190508160005260206000209050919050565b60006020601f8301049050919050565b600082821b905092915050565b6000600883026111857fffffffffffffffffffffffffffffffffffffffffffffffffffffffffffffffff82611148565b61118f8683611148565b95508019841693508086168417925050509392505050565b6000819050919050565b6000819050919050565b60006111d66111d16111cc846111a7565b6111b1565b6111a7565b9050919050565b6000819050919050565b6111f0836111bb565b6112046111fc826111dd565b848454611155565b825550505050565b600090565b61121961120c565b6112248184846111e7565b505050565b5b818110156112485761123d600082611211565b60018101905061122a565b5050565b601f82111561128d5761125e81611123565b61126784611138565b81016020851015611276578190505b61128a61128285611138565b830182611229565b50505b505050565b600082821c905092915050565b60006112b060001984600802611292565b1980831691505092915050565b60006112c9838361129f565b9150826002028217905092915050565b6112e282610f8c565b67ffffffffffffffff8111156112fb576112fa610c82565b5b61130582546110f2565b61131082828561124c565b600060209050601f8311600181146113435760008415611331578287015190505b61133b85826112bd565b8655506113a3565b601f19841661135186611123565b60005b8281101561137957848901518255600182019150602085019450602081019050611354565b868310156113965784890151611392601f89168261129f565b8355505b6001600288020188555050505b505050505050565b7f4e487b7100000000000000000000000000000000000000000000000000000000600052603260045260246000fd5b7f4e487b7100000000000000000000000000000000000000000000000000000000600052601160045260246000fd5b6000611414826111a7565b91507fffffffffffffffffffffffffffffffffffffffffffffffffffffffffffffffff8203611446576114456113da565b5b600182019050919050565b600082825260208201905092915050565b7f596f7520646f6e27742068617665206163636573730000000000000000000000600082015250565b6000611498601583611451565b91506114a382611462565b602082019050919050565b600060208201905081810360008301526114c78161148b565b905091905056fea2646970667358221220ae79868e12ec0fad8b7c1c474fb38fd938121dea930b46bf4fc4348cd70edc7f64736f6c63430008110033",
  "linkReferences": {},
  "deployedLinkReferences": {}
}